:020000040800F2
:1000000088060020450200084D0200084F02000843
:1000100051020008530200085502000800000000C9
:10002000000000000000000000000000570200086F
:1000300059020008000000005B0200085D02000891
:100040005F0200085F0200085F0200085F0200080C
:100050005F0200085F0200085F0200085F020008FC
:100060005F0200085F0200085F0200085F020008EC
:100070005F0200085F0200085F0200085F020008DC
:100080005F0200085F0200085F0200080000000035
:100090000000000000000000000000005D030008F8
:1000A0002D0500085F0200085F0200085F020008DB
:1000B000090600085F0200085F0200085F020008EE
:1000C0005F0200085F0200085F0200085F0200088C
:1000D0005F0200085F0200085F02000800000000E5
:1000E0005F0200085F0200085F02000800000000D5
:1000F0000000000000000000000000005F02000897
:10010000000000005F020008910600085F0200087E
:1001100000000000000000000000000000000000DF
:100120005F0200085F0200085F0200085F0200082B
:100130005F02000800000000000000000000000056
:100140000000000000000000000000005F02000846
:100150005F0200085F0200085F0200085F020008FB
:100160005F0200085F0200080000000000000000BD
:10017000000000000000000000000000000000007F
:10018000000000005F020008000000000000000006
:100190005F02000800F002F800F044F814A696E8A8
:1001A000000CB244B344DA4501D100F03BF8BAE8A0
:1001B0000F000FA696E83000A5EB040504EB060738
:1001C000AAEB0704A7F101074FEA15154FEA34140B
:1001D000A4F10104AC4201D300F024F813F0010FA4
:1001E00018BFFB1A43F0010300F001F8DBE71847E2
:1001F0001C0800002C0800007047000000230024A9
:1002000000250026103A28BF78C1FBD8520728BF26
:1002100030C148BF0B6070471FB500F0E9FB1FBD40
:1002200010B510BD00F031F81146FFF7F5FF00F0F2
:100230003DFB00F04FF803B4FFF7F2FF03BC00F002
:1002400057F800000948804709480047FEE7FEE7E5
:10025000FEE7FEE7FEE7FEE7FEE7FEE7FEE7FEE776
:1002600004480549054A064B704700001905000877
:1002700095010008880000208806002088020020E0
:1002800088020020704770477047754600F02CF8D0
:10029000AE4605006946534620F00700854618B073
:1002A00020B5FFF7DDFFBDE820404FF000064FF01E
:1002B00000074FF000084FF0000BAC46ACE8C00957
:1002C000ACE8C009ACE8C009ACE8C00921F00701FE
:1002D0008D46704710B50446AFF300802046BDE858
:1002E0001040FFF7A8BF0000004870470000002042
:1002F00001491820ABBEFEE726000200704700004F
:1003000080B582B043F64401C4F20201086840F4AB
:100310008040086043F61001C4F20101086820F033
:100320000F0008600868086043F60041C4F201014C
:10033000086840F48070086043F60841C4F2010187
:10034000086840F4807008601720019000F074FA8B
:100350000198012100F088FA02B080BD43F61440F4
:10036000C4F201000068C005002811D5FFE743F67C
:100370001441C4F20101086840F48070086040F242
:100380006001C2F20001087880F001000870FFE708
:100390007047000043F63001C4F20201086840F0E3
:1003A0000700086040F60001C4F20201086820F06E
:1003B00040600860086840F08060086040F6040112
:1003C000C4F20201086820F40050086040F60801F9
:1003D000C4F20201086820F04060086040F60C0199
:1003E000C4F20201086820F04060086040F2004258
:1003F000C4F20202106820F440101060106840F44B
:100400008010106040F20441C4F20201086820F438
:100410008060086040F20841C4F20201086820F4DC
:100420004010086040F20C41C4F20201086820F458
:10043000401008600021C4F20201086820F4406006
:1004400008600C23C4F20203186820F400601860EE
:10045000086820F440300860186820F440301860C4
:10046000106820F00C001060106840F00800106068
:1004700040F22042C4F20202106820F0F000106046
:10048000106840F020001060086840F00400086028
:10049000086820F0080008600422C4F20202106814
:1004A00020F0020010600822C4F20202106840F03E
:1004B0000C001060086840F020000860086820F018
:1004C000100008602021C4F20201086840F4407066
:1004D0000860704781B08DF803009DF80300B528CF
:1004E00004DBFFE7B4208DF80300FFE79DF803006D
:1004F000C821484341F2C261C0F26C11A0FB011057
:100500003230ADF80000BDF8000040F24041C4F2C6
:100510000001086001B070474EF68851CEF200012C
:10052000086840F4700008607047000081B044F231
:100530001000C4F2010000688007002860D5FFE7C2
:1005400044F21001C4F20101086820F002000860C2
:100550001020C4F202000068400700280BD5FFE716
:1005600044F23400C4F20100006840F27C01C2F29F
:100570000001086043E044F23400C4F20100016865
:1005800040F26C00C2F200000160006840F27C01A1
:10059000C2F20001096888420DD3FFE740F26C0007
:1005A000C2F20000006840F27C01C2F2000109685A
:1005B000401A00900EE040F27C00C2F20000016898
:1005C00040F26C00C2F200000068401A00F5803072
:1005D0000090FFE7009940F27800C2F2000001604D
:1005E00090ED000AB8EE400A9FED061A80EE010A6F
:1005F00040F26800C2F2000080ED000AFFE7FFE76A
:1006000001B07047000068421020C4F2000000688A
:10061000C00740B1FFE71021C4F20001086820F0D4
:1006200001000860FFE71421C4F20201086880F0AD
:10063000020008607047000080B582B043F64001B8
:10064000C4F20201086840F0010008602821C4F2E9
:1006500000010F2008602C21C4F200014CF24F3041
:1006600008600C21C4F20001086840F00100086035
:100670004FF08041086840F0010008601C200190A4
:10068000092100F0F1F8019800F0D6F802B080BD21
:1006900040F61040C4F200000068C007B8B1FFE7A0
:1006A00040F61041C4F20001086820F00100086023
:1006B00040F27001C2F2000108680130086040F2A7
:1006C0007401C2F20001086801300860FFE770475A
:1006D00080B543F64401C4F20201086840F480305A
:1006E000086044F21801C4F20101086840F00100FA
:1006F0000860086820F00200086044F22001C4F29B
:100700000101086840F002000860086840F0080035
:100710000860086840F00100086044F22801C4F253
:1007200001010F20086044F22C01C4F201014FF6D0
:10073000FF70086044F20C01C4F20101086840F047
:100740000200086044F20001C4F20101086840F0B0
:1007500001000860182000F06FF880BD43F64001EA
:10076000C4F20201086840F00200086040F228412B
:10077000C4F200019F20086040F22C41C4F2000145
:1007800040F2CF70086040F21C41C4F200010868DA
:1007900020F4E0400860086840F4C0400860086841
:1007A00040F40060086040F22041C4F20001086893
:1007B00040F48050086040F24041C4F20001322011
:1007C000086040F20041C4F20001086840F00100F6
:1007D0000860704780B582B043F64001C4F2020160
:1007E000086840F00800086040F62841C4F20001A3
:1007F00040F23F60086040F62C41C4F2000109203D
:100800000190086040F60C41C4F20001086840F015
:100810000100086040F60041C4F20001086840F0A1
:10082000010008603220009000F006F8009801995D
:1008300000F01AF802B080BD81B08DF803009DF978
:10084000030000280ED4FFE79DF9031001F01F02FA
:10085000012090404A094EF20011CEF2000141F809
:100860002200FFE701B0704782B08DF807000091C9
:100870009DF9070000280AD4FFE7009800019DF9C0
:1008800007104EF20042CEF2000288540BE00098AE
:1008900000019DF8071001F00F014EF61452CEF240
:1008A00000028854FFE702B07047000080B582B0B4
:1008B00000200190FFF76EFDFFF78CFFFFF720FD92
:1008C000FFF74CFFFFF7B8FEFFF702FFFFE740F22C
:1008D0007000C2F20000006840F28001C2F2000124
:1008E0000968401AB0F5FA7F13D3FFE740F6140108
:1008F000C4F20201086880F40050086040F2700001
:10090000C2F20000006840F28001C2F200010860FB
:10091000FFE71020C4F2020000688006002809D515
:10092000FFE740F21441C4F20201086820F480603D
:10093000086008E040F21441C4F20201086840F483
:1009400080600860FFE740F26000C2F200000078BB
:1009500038B1FFE740F26401C2F2000101200860F3
:10096000FFE740F26800C2F2000090ED000AB2EE2C
:10097000041AB4EE410AF1EE10FA07DCFFE740F288
:100980006401C2F2000101200860FFE740F2640048
:10099000C2F200000068012825D1FFE70020FFF720
:1009A00099FD40F27400C2F20000006840F2840138
:1009B000C2F200010968401A40F6B831884211D3EA
:1009C000FFE740F26401C2F200010020086040F23B
:1009D0007400C2F20000006840F28401C2F200011B
:1009E0000860FFE703E07820FFF774FDFFE76EE79C
:1009F000F1EE100A4FF6FF71C0F2C03120EA01009B
:100A000040F04070E1EE100A704700001C0A000838
:0C0A10000000002088060000FC01000827
:0400000508000245A8
:00000001FF
